{
  "contractName": "lottery",
  "abi": [
    {
      "constant": true,
      "inputs": [],
      "name": "manager",
      "outputs": [
        {
          "name": "",
          "type": "address"
        }
      ],
      "payable": false,
      "stateMutability": "view",
      "type": "function"
    },
    {
      "constant": true,
      "inputs": [
        {
          "name": "",
          "type": "uint256"
        }
      ],
      "name": "players",
      "outputs": [
        {
          "name": "",
          "type": "address"
        }
      ],
      "payable": false,
      "stateMutability": "view",
      "type": "function"
    },
    {
      "inputs": [],
      "payable": false,
      "stateMutability": "nonpayable",
      "type": "constructor"
    },
    {
      "constant": false,
      "inputs": [],
      "name": "enter",
      "outputs": [],
      "payable": true,
      "stateMutability": "payable",
      "type": "function"
    },
    {
      "constant": false,
      "inputs": [],
      "name": "pickWinner",
      "outputs": [],
      "payable": false,
      "stateMutability": "nonpayable",
      "type": "function"
    },
    {
      "constant": true,
      "inputs": [],
      "name": "getPlayers",
      "outputs": [
        {
          "name": "",
          "type": "address[]"
        }
      ],
      "payable": false,
      "stateMutability": "view",
      "type": "function"
    },
    {
      "constant": true,
      "inputs": [],
      "name": "getLotteryBalance",
      "outputs": [
        {
          "name": "",
          "type": "uint256"
        }
      ],
      "payable": false,
      "stateMutability": "view",
      "type": "function"
    }
  ],
  "bytecode": "0x608060405234801561001057600080fd5b50336000806101000a81548173ffffffffffffffffffffffffffffffffffffffff021916908373ffffffffffffffffffffffffffffffffffffffff16021790555061070f806100606000396000f300608060405260043610610078576000357c0100000000000000000000000000000000000000000000000000000000900463ffffffff168063481c6a751461007d5780635d495aea146100d457806360654e47146100eb5780638b5b9ccc14610116578063e97dcb6214610182578063f71d96cb1461018c575b600080fd5b34801561008957600080fd5b506100926101f9565b604051808273ffffffffffffffffffffffffffffffffffffffff1673ffffffffffffffffffffffffffffffffffffffff16815260200191505060405180910390f35b3480156100e057600080fd5b506100e961021e565b005b3480156100f757600080fd5b5061010061031b565b6040518082815260200191505060405180910390f35b34801561012257600080fd5b5061012b61033a565b6040518080602001828103825283818151815260200191508051906020019060200280838360005b8381101561016e578082015181840152602081019050610153565b505050509050019250505060405180910390f35b61018a6103c8565b005b34801561019857600080fd5b506101b7600480360381019080803590602001909291905050506104da565b604051808273ffffffffffffffffffffffffffffffffffffffff1673ffffffffffffffffffffffffffffffffffffffff16815260200191505060405180910390f35b6000809054906101000a900473ffffffffffffffffffffffffffffffffffffffff1681565b600060018054905061022e610518565b81151561023757fe5b06905060018181548110151561024957fe5b9060005260206000200160009054906101000a900473ffffffffffffffffffffffffffffffffffffffff1673ffffffffffffffffffffffffffffffffffffffff166108fc3073ffffffffffffffffffffffffffffffffffffffff16319081150290604051600060405180830381858888f193505050501580156102d0573d6000803e3d6000fd5b5060006040519080825280602002602001820160405280156103015781602001602082028038833980820191505090505b5060019080519060200190610317929190610616565b5050565b60003073ffffffffffffffffffffffffffffffffffffffff1631905090565b606060018054806020026020016040519081016040528092919081815260200182805480156103be57602002820191906000526020600020905b8160009054906101000a900473ffffffffffffffffffffffffffffffffffffffff1673ffffffffffffffffffffffffffffffffffffffff1681526020019060010190808311610374575b5050505050905090565b60008090505b60018054905081101561045c576001818154811015156103ea57fe5b9060005260206000200160009054906101000a900473ffffffffffffffffffffffffffffffffffffffff1673ffffffffffffffffffffffffffffffffffffffff163373ffffffffffffffffffffffffffffffffffffffff161415151561044f57600080fd5b80806001019150506103ce565b662386f26fc100003411151561047157600080fd5b60013390806001815401808255809150509060018203906000526020600020016000909192909190916101000a81548173ffffffffffffffffffffffffffffffffffffffff021916908373ffffffffffffffffffffffffffffffffffffffff1602179055505050565b6001818154811015156104e957fe5b906000526020600020016000915054906101000a900473ffffffffffffffffffffffffffffffffffffffff1681565b60004442600160405160200180848152602001838152602001828054801561059557602002820191906000526020600020905b8160009054906101000a900473ffffffffffffffffffffffffffffffffffffffff1673ffffffffffffffffffffffffffffffffffffffff168152602001906001019080831161054b575b505093505050506040516020818303038152906040526040518082805190602001908083835b6020831015156105e057805182526020820191506020810190506020830392506105bb565b6001836020036101000a038019825116818451168082178552505050505050905001915050604051809103902060019004905090565b82805482825590600052602060002090810192821561068f579160200282015b8281111561068e5782518260006101000a81548173ffffffffffffffffffffffffffffffffffffffff021916908373ffffffffffffffffffffffffffffffffffffffff16021790555091602001919060010190610636565b5b50905061069c91906106a0565b5090565b6106e091905b808211156106dc57600081816101000a81549073ffffffffffffffffffffffffffffffffffffffff0219169055506001016106a6565b5090565b905600a165627a7a72305820def7dbe8968bf65d0d21e5b5857c1e77f0dc02a462e472a6726959c112d6232b0029",
  "source": "pragma solidity ^0.4.23;\ncontract lottery {\n    address public manager;\n    address[] public players;\n\n    constructor() public {\n        manager = msg.sender;\n    }\n    function enter() public payable {\n        //同じ人がなんども参加できないようにする\n        for(uint i=0; i< players.length; i++) {\n            require(msg.sender !=players[i]);\n        }\n        // 0.1TETH以上の参加費を指定しよう\n        require(msg.value > 0.01 ether);\n        players.push(msg.sender);\n    }\n    function random() private view returns(uint) {\n        return uint(keccak256(abi.encodePacked(block.difficulty, now, players)));\n    }\n    //コントラクト作成者しか呼び出せないようにする\n    function pickWinner() public {\n        uint index = random() % players.length;\n        players[index].transfer(address(this).balance);\n        //抽選の後再度抽選が出来るようにメンバーを削除\n        players = new address[](0);\n    }\n    //コントラクト作成者にしか呼び出せない修飾子を作ろう\n    modifier restricted() {\n        require(msg.sender == manager);\n        _;\n    }\n    function getPlayers() public view returns (address[]) {\n        return players;\n    }\n    //抽選で溜まっている金額を返す関数を書こう\n    function getLotteryBalance() public view returns(uint) {\n        return address(this).balance;\n    }\n}\n",
  "sourcePath": "/Users/arasakiyasukatsu/Desktop/techboost/lottery/lottery-contract/contracts/Lottery.sol",
  "compiler": {
    "name": "solc",
    "version": "0.4.24+commit.e67f0147.Emscripten.clang"
  },
  "schemaVersion": "2.0.1",
  "updatedAt": "2018-12-20T07:36:08.224Z"
}